S01900005A425F554152545F616E645F4C44323431302E7333375C
S214000000C01A002011B00100AD3B0000B13B00005B
S214000010A70B0000000000000000FFFF54000000D7
S21400002004180F00000000000000000000000000A0
S21400003000000000000000000000000000000000BB
S214000040000000000000000000000000A701000003
S20800005000000000A7
S214000054C01A002011B00100AD3B0000B13B000007
S214000064A70A0A010002000004180FACA067A70143
S2140000740000000000000000000000000000000077
S2140000840000000000000000000000000000000067
S2140000940000000000000000FFFFFFFFFFFFFFFF5F
S2140000A4FFFFFFFF006007000000000000000000E4
S2140000B4FFFFFFFFFFFFFFFF8000000000000000BF
S2140000C40000000000000000000000000000000027
S2140000D40000000000000000B4520020B4520020CB
S2140000E4C01A002014B20300D02F030060110020B1
S2100000F42C11002000E0070000000000B7
S214000200C01A002011B00100AD3B0000B13B000059
S214000210F9920000B53B0000BD3B00000FB00100A6
S2140002200FB001000FB001000FB001000FB00100C9
S214000230C13B00000FB001000FB001000FB001007D
S214000240343C0000343C0000343C0000343C0000E9
S214000250343C0000F957000029650000343C0000DB
S214000260343C0000343C0000FD550000B1C30000E3
S214000270343C0000343C0000343C0000E9C300007D
S214000280343C0000343C0000343C00000FB0010059
S214000290343C0000594E0000343C0000343C000062
S2140002A0343C0000594F0000314F0000343C000041
S2140002B0343C0000343C0000343C0000E18901007E
S2140002C06D89010069890100A9800100DD890100AE
S2140002D07189010091890100758901000FB0010044
S2140002E0258A0100343C0000343C0000953E0000A6
S2140002F0343C0000343C0000343C00000FB00100E9
S214000300343C0000343C0000343C0000343C000028
S214000310343C0000343C0000343C0000343C000018
S214000320343C0000343C0000343C0000343C000008
S208000330343C000054
S214000334F8B500BFF8BC08BC9E467047F8B500BFC9
S214000344F8BC08BC9E46704710B5054C237833B9F4
S214000354044B13B1044800E000BF0123237010BD12
S214000364382400200000000094A8030008B5034BBE
S2140003741BB10349034800E000BF08BD00000000AD
S2140003843C24002094A80300154B002B08BF134BF5
S2140003949D46A3F5803A00218B460F461348144A1F
S2140003A4121A32F0EFFD0F4B002B00D098470E4B7D
S2140003B4002B00D098470020002104000D000D48B3
S2140003C4002802D00C4800E000BF32F09DFD20005B
S2140003D429000CF057FA32F083FD00BF0000080035
S2140003E4C01A00200000000000000000382400208E
S2140003F4B4520020000000000000000013B50446BC
S2140004042C4901200FF0B4FD042C50D8DFE804F08A
S2140004142123033D3300284901200FF0A9FD4FF4A2
S2140004249673032200930521002000F0B9FE0123F1
S214000434224A41F288311370214A224813701FF071
S214000444CDFB4FF47A71204802B0BDE810401FF08F
S214000454C5BB1E49E0E71E4901200FF089FD4FF495
S214000464FA73022201210093002000F099FE022272
S214000474134B1A70E5E7174901200FF079FD4FF486
S2140004849673032200931146EEE70C4B1B7873B168
S214000494114901200FF06CFD4FF49673032200936C
S2140004A40421002000F07CFE054B0322E1E702B0A5
S2140004B410BD00BF40300300533003005824002012
S2140004C45843002064430020504300206630030055
S2140004D47B3003008D300300A130030013B501A860
S2140004E400F094FDDDED017AB2EE041AB8EE670A68
S2140004F4DFED170A174800F061FCFCEEC07A17EE31
S214000504901A154CCDED017A2368994202D9CA1A7D
S2140005141D2A04D899420BD25B1A1D2B08D989B21E
S214000524032000F0F9FA019A0C4901200FF020FD8F
S214000534019BB3F5FA7F07D30221012000F006FEE3
S214000544019B236002B010BD012000F0ADFDF7E76B
S214000554CDCCCC3D542400205C2400203130030054
S214000564042908B50BD1012005490FF001FD03222B
S214000574044B05481A70BDE808401FF023BB08BDAD
S214000584B53003005843002050430020042838B5F3
S21400059405460C4624D1022911D0052918D0012974
S2140005A424D11D4920460FF0E3FC2946002000F024
S2140005B4CDFD21460120BDE8384000F097BA174922
S2140005C401200FF0D5FC002000F06EFD0021F1E7BD
S2140005D40322134B13481A70BDE838401FF0F2BAD2
S2140005E4032803D1012902D002290BD038BD0E49B5
S2140005F420460FF0BDFC0421204600F0A7FD21464E
S2140006040220D8E7094901200FF0B2FC012000F0CF
S2140006144BFD00212046CEE7EB2F0300FF2F0300FF
S21400062458430020504300200E30030022300300BD
S21400063408B5D0B10138042817D8DFE800F003095C
S2140006440F11110009490120BDE808400FF090BCC5
S2140006540521012000F07AFD0549F4E70549F2E793
S214000664012000F021FD0449EDE708BDCA3003006F
S214000674DD300300F830030010310300032810B502
S2140006840C4609D1012907D100F020F92046BDE81F
S214000694104002490FF06CBC10BD00BFD02F030001
S2140006A413B50446C0B1012822D1124B1A782AB1D8
S2140006B40022014602201A7000F090FAC823012294
S2140006C400930621002000F06BFD0621012002B0F5
S2140006D4BDE8104000F03ABD0120064B187000F04B
S2140006E4E3FC2146022002B0BDE8104000F076BAD2
S2140006F402B010BD581C002008B5104901200FF0A8
S21400070437FC0F4800F0DCF80E4800F04FF90E49AD
S2140007140E4800F083FA0E4800F00AFC00F0E8FCED
S2140007240A2000F0CDFE0B4800F0FCFE00220A4B27
S2140007340A481A70BDE808401FF044BA3131030075
S2140007440104000065050000810600009105000014
S214000754E104000035060000584300205043002002
S21400076407B51D4901200FF003FC00221B4B1A702D
S2140007741B4B1A78042A10D8DFE802F003120F1D68
S214000784270002221A700CF069FF30B94FF49673F2
S21400079403220093012100F003FD03B05DF804FB7F
S2140007A402221A7000F05EF901200E4903B05DF8CB
S2140007B404EB0FF0DDBB00F045F94FF4FA610A488C
S2140007C403B05DF804EB1FF009BA02221A7003B0F6
S2140007D45DF804EB03F0EABC493103005043002003
S2140007E4584300205F3103005C430020002208B514
S2140007F4094B0A4901201A700FF0BAFB0422084B71
S2140008041A701AF0D9FF22F067FABDE808404FF4D0
S214000814FA6104481FF0E2B95C430020C166030095
S214000824584300205043002010B50368C07C5C7910
S21400083488B1012819D1012C09D10421002000F027
S21400084485FC01212046BDE8104000F04FB9022C7B
S214000854F7D10421F3E7012C03D100F025FC002195
S214000864F0E7022CFBD10120F7E710BD70B5016854
S214000874037904464A881BB1022B11D000200EE0EF
S214000884062AFBD1C67C4D79FFF7CEFF321CE388DF
S21400089418BF01222946284600F054F9012070BDED
S2140008A4062AEBD1FFF7C0FFF8E700000022024B50
S2140008B402481A7000F0B0BA64430020A50600008F
S2140008C4014B1860704700BF6424002008B50CF084
S2140008D4C5FE30B9BDE808404FF4FA6101481FF080
S2140008E47DB908BD6C43002008B50CF0B7FE02289D
S2140008F406D1BDE808404FF4FA6102481FF06EB90D
S21400090408BD00BF6C43002038B500240C4D2C7085
S2140009140CF0A4FE60B909F0A7FC0A4A284613683E
S21400092441F2883101331360BDE838401FF056B9F0
S214000934022803D109F0D8FC024B1C6038BD00BF66
S2140009446C4300206024002010B50446144901209E
S2140009540FF00EFB902C10D1124B134C1B683BB1BE
S214000964FFF7C2FF23680BB100209847002010BD94
S2140009742368002BFAD00220F7E7912CF6D10CF06E
S2140009846DFE28B9084B1B68002BEFD00320ECE75C
S2140009940328EBD1044B1B68002BE7D00420E4E7C4
S2140009A46D3103006024002064240020014B18608D
S2140009B4704700BF682400200020704708B50B88E5
S2140009C45BB948F234024988914206D1044B1B684D
S2140009D40BB104219847012000E0002008BD00BFA9
S2140009E46824002070B516460022054690B09DF88F
S2140009F450408DF80E209DF854208DF80C10090AEE
S214000A048DF80D108DF80F201946224604A832F0F2
S214000A14AEFA043403AB00930194044B32462946E1
S214000A2410200EF04DFA10B070BD00BFBA49030096
S214000A3410B514460EF0CAFAA1B20020BDE8104064
S214000A440EF0A2BA1FB50223002000934FF48A5278
S214000A5403AB48F234018DF80D0002F001F805B03E
S214000A645DF804FB10B5204B86B0186899889A790F
S214000A740490D3F807003123ADF814108DF816202F
S214000A8403908DF808300CF0E9FD02282AD14224A0
S214000A9407230122CDE90034052104AB0020FFF72B
S214000AA4A1FF012100220846FFF7C2FF0423019498
S214000AB40093012203AB05210020FFF793FF0121D9
S214000AC400220846FFF7B4FF0194012405212246BC
S214000AD40020009402ABFFF785FF00222146204643
S214000AE4FFF7A6FF06B010BD8D31030030B5102207
S214000AF40124054685B004AB03F8011D0620CDE9A4
S214000B04004200212246FFF76DFF002221462846B8
S214000B14FFF78EFF05B030BD1FB504AB23F8021DEA
S214000B24022221210446CDE900214FF480600122EF
S214000B340021FFF757FF002201212046FFF778FF28
S214000B4404B010BD2DE9F04F0646894617469A466E
S214000B5400254FF6FF7BDFF8808087B0ECB202A951
S214000B6420461AF031FC019020461AF025FC019B21
S214000B7404465BBB504507D19DF80930B34203D108
S214000B849DF80C304B451ED00CF064FDA0421AD0E4
S214000B945C4518D0231D9BB2012B14D99DF809304F
S214000BA4B34210D14346A7B10122062101200EF01C
S214000BB487F99DF80C109DF809000EF007FA2146F7
S214000BC400200EF0E1F90135032DC7D107B0BDE8CA
S214000BD4F08F3A46E9E700BFE2320300F0B501259C
S214000BE42027064685B004AC04F8011D23462A4691
S214000BF4CDE9005700214FF4A060FFF7F3FE294625
S214000C0430460022FFF714FF0097234600224FF4D5
S214000C14A06130460DF058FF05B0F0BD024B1860D9
S214000C24024B1960704700BF742400206C24002017
S214000C34054B5A78824205D05B7C83420CBF012068
S214000C44FF207047002070475C1C002038B5FFF773
S214000C54EFFF194DFF280446287025D0012910D12E
S214000C6400F052FC2A78154B03EB041403EB021332
S214000C749A89606001329A811148BDE838401EF0B6
S214000C84A1BF89B900F040FC0C4C2B78014604EB5C
S214000C940313586800F03EFC32282D7805D804EB80
S214000CA40514A389013BA38138BD00F02DFC04EB99
S214000CB40514A060F8E700BF702400205C1C002028
S214000CC4744300202DE9F8430023374E374C384D43
S214000CD4DFF8E480337004F1200900F015FCA389E2
S214000CE40746E3B1302223785A43324B9B58627846
S214000CF4D340DB072FD40146606800F00BFCB0F548
S214000D047A7F11D10121D8F8003060789847012302
S214000D14A373A3891BB1642130461EF05FFF103411
S214000D244C45DAD1BDE8F8833946606800F0F2FB3A
S214000D34B0F5FA6F03D1D8F800300221E5E739465A
S214000D44606800F0E7FB40F6B8339842E1D1D8F883
S214000D5400300321D9E7A37B13BB0146606800F08B
S214000D64D9FBB0F5C87FD4D3A389013B042B08D89C
S214000D74DFE803F0030A0D10130001212B686078E6
S214000D8498470023A381C4E72B680221F7E72B6862
S214000D940321F4E72B680421F1E72B680521EEE72D
S214000DA40023A373EEE700BF744300205C1C0020FE
S214000DB47424002014C003406C240020D0ED007A74
S214000DC4E1EE017AB0EE677AE0EEA07A0A4BC7EE5F
S214000DD4276AD3ED007A30EE670AE0EE267AB0EEA4
S214000DE4670AC3ED007AF7EE007A77EEE67A67EEE6
S214000DF4877AC0ED007A70477C1C002007B5012373
S214000E040022CDE9002303220220114606F0ACF8A6
S214000E1403B05DF804FB0000012310B504461A462F
S214000E240321022006F0E6F80449032004F070F8D3
S214000E34034B1C60BDE81040FFF7E0BF7D0E0000CA
S214000E447824002007B5034620B103B05DF804EB10
S214000E54FFF7D4BF0322CDE900001146022006F0B6
S214000E6483F803B05DF804FB024B1868C0F3C000B7
S214000E74704700BF70C00340032810B50FD1FFF7BA
S214000E84F3FF60B10024064B20461C70FFF7DAFF20
S214000E940448C8210470BDE810401EF09FBE10BD73
S214000EA47C2400207C43002070B500251B4C1C4E7F
S214000EB423783570012B1BD002D3022B20D070BDB3
S214000EC4FFF7D2FF80B1012016490FF051F8012038
S214000ED4154B20701B6803B1984741F288311048BF
S214000EE4BDE870401EF07ABEBDE87040FFF786BFCE
S214000EF402232370FFF782FF47F230513046EFE7B4
S214000F04094C2368002BDAD0012008490FF030F88A
S214000F1423682846BDE87040184700BF7C2400209C
S214000F247C4300209831030078240020AD31030070
S214000F342DE9F0412E4E8EB008AD002407460FCEA4
S214000F444FF003080FC596E80300012685E8030062
S214000F54284DCDE903442846CDE9054407948DF889
S214000F640E808DF808608DF809408DF80A408DF8DB
S214000F740B4006F043FA0221052005F0A5FD0223E6
S214000F8422461D4928468DF8173006F0ADFA23464A
S214000F948DF819000090224642F2107128468DF80A
S214000FA4238006F0B9FA04238DF82130A5238DF8A2
S214000FB4250008AA05A928468DF809308DF80E40A4
S214000FC48DF8086006F0CCFA02AA03A9284606F0B3
S214000FD4D5F90A4A0A48D2F8283343F48033C2F8CB
S214000FE42833084B1F601EF0EDFD0EB0BDE8F081FF
S214000FF4C43103000040004A40420F0000C00340D2
S214001004844300208024002000000000012213B541
S2140010140446184BDA605A6902F4A072B2F5807F6F
S214001024F9D16846134906F0F1FB0098124A134BAF
S21400103403FB0023B3FBF0F031F078FA9FED091BB5
S21400104441EC100B2EF04EFD08A3D3E9002351EC1F
S214001054100B31F0E5FA31F093FD206002B010BDBC
S214001064AFF30080666666666666F6BF000000003C
S214001074D8227E410040004A408AF701F0D8FFFF9C
S214001084002208B5064B1A70064B1B6803B1984736
S214001094BDE808404EF6602101481EF09FBD00BF23
S2140010A484430020802400200C2370B55843302548
S2140010B40D4901230A18085C41F210010B4C5688AE
S2140010C405FB004003FA06F646501079D68805FB61
S2140010D4004003FA06F64650107A5289934005FB00
S2140010E40042535070BD00BF801C002000C0034067
S2140010F470B5124D00242E462919285D00230222BD
S2140011044988043405F076FF0C2CF5D100243019F8
S214001114C18900230222007B043405F06BFF0C2CEB
S214001124F5D10020FFF7C0FF0120FFF7BDFF044BF9
S214001134044A1A60044A5A6070BD00BF801C00202E
S214001144C4430020BC4300208C4300200C22124BD6
S2140011542DE9F04102FB003001270023302641F23E
S214001164100C42F2100E0D4D10F8232000EB8304F1
S21400117406FB0252648841FA03F818F0010F07FAD6
S21400118404F403F1010314BF42F80E4042F80C4085
S214001194032BE9D1BDE8F081801C002000C0034089
S2140011A4F0B4142501274543074EBA407419A360CA
S2140011B4049B7755E360054BA174A28053F8200086
S2140011C4F0BC1EF0FFBC00BF94430020C4430020C4
S2140011D40022F8B5154F164D57F8203004461A70FD
S2140011E414234343EE18B288BAB1EB5C012B14D136
S2140011F4D3070ED5B17CFFF7A9FFB16857F82400D2
S2140012041EF0ECFC142303FB0454A388013BA380C8
S214001214F8BDFFF749FFF168F0E7142300226343A3
S2140012242046EA54BDE8F840FFF73EBFC44300201A
S214001234944300200020FFF7CBBF0120FFF7C8BF70
S21400124470B5164B88B0039308AB03F81C1D0493C3
S2140012540123ADF8143002AB06930223054603A916
S2140012640F48ADF81C3042F2107406F011F80C4E1C
S214001274012808D1013C02D1204608B070BD304692
S21400128405F0FAFEF4E79DF809309DF8082003F00F
S214001294FC0303EB02232B600120EEE7800004002E
S2140012A40000014A70B50C46E5210646FFF7C8FF64
S2140012B408B9002070BD43F609524FF47A753368B6
S2140012C4E0215A43520BA2F5BB52103AB2FBF5F298
S2140012D420463260FFF7B4FF0028EAD045F2CD532B
S2140012E4226853435B0BA3F53743023BB3FBF5F38A
S2140012F42360DFE773B55F4E5F4D336801A90133A2
S21400130433602B68684601332B60FFF7CBFF4FF43E
S2140013147A723168594CB1FBF2F302FB131383B9AA
S214001324009BB2EE041A07EE903ADFED550AB8EECB
S214001334670A54482360FFF741FDBCEEC00A84EDFB
S214001344000A3368042B18D9009BB2EE041A07EE81
S214001354903ADFED4B0AB8EE670A4A482360FFF777
S2140013642DFDFCEEC07A484917EE902A0120C4ED04
S214001374007A0EF0FDFD00233360009B2268934242
S21400138402D9991A012904D1934218D2D21A012AF1
S21400139415D007EE903A3B48B8EE670AB2EE041A48
S2140013A4DFED370A2360FFF709FDFCEEC07A374904
S2140013B417EE902A0120C4ED007A0EF0D9FD4FF402
S2140013C47A722968324CB1FBF2F302FB131383B929
S2140013D4019BB2EE041A07EE903ADFED290AB8EE46
S2140013E4670A2C482360FFF7E9FCBCEEC00A84EDCC
S2140013F4000A2B68042B18D9019BB2EE041A07EED8
S214001404903ADFED1F0AB8EE670A22482360FFF71A
S214001414D5FCFCEEC07A204917EE902A0120C4EDD4
S214001424007A0EF0A5FD00232B60019B22689342F0
S21400143402D9991A012904D1934218D2D21A012A40
S21400144415D007EE903A1348B8EE670AB2EE041ABF
S214001454DFED0B0A2360FFF7B1FCFCEEC07A0F4900
S21400146417EE902A0120C4ED007A0EF081FD02B03A
S21400147470BD00BF84240020882400208C24002013
S214001484CDCCCC3D94240020DC310300E9310300AC
S21400149490240020982400200C3203001932030004
S2140014A4002310B5054C2370FFF724FF2046BDE843
S2140014B410404FF47A711EF091BB00BFCC4300205D
S2140014C400220146044B05481A700260044A184676
S2140014D411601EF083BB00BFD44300209C24002070
S2140014E4A024002000230548054A0370054B19680C
S2140014F413680B4413601EF071BB00BFD443002076
S2140015049C240020A0240020014B1868704700BFCC
S2140015149C2400200B1A814238BF03F1FF3318467F
S2140015247047000010B5044601234FF4E131002251
S21400153403200AF03FFC044B4FF47A711C60034806
S214001544BDE810401EF04ABBA8250020DC4300205E
S2140015540021F0B51A4E1B4D032831706F780B46E8
S2140015648C460A460C4612D02046F0BD012AE85C9A
S21400157413D0022A1ED0B12820D1012122464FF0D2
S214001584FF0C0C460133DBB2204614460246002C00
S214001594ECD00029E8D03370E6E7012B88BF8CEA4C
S2140015A4000C9F4208BF022201331446DBB200221D
S2140015B40121E9E7844518BF0422E5E70122E3E7B1
S2140015C4A4240020A524002010B50320FFF7C0FFA4
S2140015D4022801D0042805D1034B1B6813B1BDE8CB
S2140015E41040184710BD00BFA825002073B500247E
S2140015F40F4B03201C700AF03FFC054690B10D4EBD
S2140016040DF10701032001340AF038FCA4B29DF85A
S2140016140730A54206F8013F02D0B4F5807FEFD12B
S214001624FFF7D2FF322102481EF0D8FA02B070BD8E
S214001634DC430020A42400201FB5012300220093CD
S21400164406210DF10F030DF090FA20B99DF80F3026
S21400165423B102F0EFFA05B05DF804FB02F0EBFAF2
S214001664F9E7000030B50024144D85B02C700BF05B
S214001674F5FF022817D100900DF10E032246032130
S21400168401200DF072FABDF80E0048B1204602F0B3
S214001694D3FA4FF47A6128461EF0A0FA05B030BD9E
S2140016A402F0C8FAFAE708F0DFFD054B0090054A99
S2140016B4054901200EF05CFCF0E700BFEC43002077
S2140016C4C24A03003C3203004132030008B50BF063
S2140016D4C5FF02280CD10022064B01201A7007F021
S2140016E48BFABDE808400246034901200EF040BCD0
S2140016F408BD00BFE4430020553203007047FFF7DF
S2140017049BBF09B9FFF798BF704738B5C37B05463A
S2140017140BB1832038BDC47C2CB901F027FA20B95C
S214001724EB7B002BF5D18120F4E72046F2E738B5B1
S214001734C37B05460BB1832038BDC47C6CB9017DE0
S21400174482898B1C9A420AD380680DF058FF07F0F2
S21400175411FA30B9EB7B002BEDD18120ECE7802029
S214001764EAE72046E8E7C37B10B504460BB18320BE
S21400177410BDC37C1BB1012B10D08120F8E7017D7E
S21400178482898B1C9A420CD380680DF038FF07F0D0
S2140017942BFE40B9E37B002BE9D1EEE707F03CFED5
S2140017A4F7E78020E4E70020E2E7F8B5C37B0446C9
S2140017B40BB18320F8BDC37C052B29D8DFE803F0E2
S2140017C4032A35414C4F057D8289AB1C9A4201D2CF
S2140017D48020EFE7ADB2294680680DF010FF06467C
S2140017E4A06802352844A7890DF022FF284401305A
S2140017F48742EDD32946A289A0680DF007FF01466B
S214001804304607F0B9FA002848D1E37B002BD0D144
S2140018148120CFE7017D82898B1C9A42D8D38068C9
S2140018240DF0EDFE07F0C8FAEDE7037D81895A1C3A
S2140018349142CDD38268591C1144D05C07F0ECFA6F
S214001844E1E7017D82898B1C9A42C1D380680DF042
S214001854D6FE07F063FBD6E707F0BCFBD3E7057DAF
S2140018648289AB1C9A42B3D3ADB2294680680DF088
S214001874C6FE0646A06802352844A7890DF0D8FEA1
S214001884284401308742A3D32946A289A0680DF0D4
S214001894BDFE0146304607F0E5FBB4E7002089E7C5
S2140018A4C37B2DE9F7430446002B40F0BA80C37C83
S2140018B4062B00F2B880DFE803F0044A5A6A7585FE
S2140018C4A800057D8289AB1C9A4203D2802003B00F
S2140018D4BDE8F083ADB2294680680DF090FEA2897B
S2140018E4E91C8A42064605F10203EFD3881C8242AD
S2140018F4ECD3A0680535C75C0DF081FE8046A06871
S214001904B4F80C9028440DF093FE28440130814529
S214001914DCD32946A289A0680DF078FE8146A0682B
S21400192428440DF085FE01300544A0684B4610FAA5
S21400193485F500954246394630460AF075F9002882
S21400194473D1E37B002B14BF83208120BFE7057D82
S2140019548289EB1C9A42B9D3ADB2294680680DF051
S2140019644EFEA3680235595D0AF0D2F9E7E7057D15
S2140019748289EB1C9A42A9D3ADB2294680680DF041
S2140019843EFEA3680235595D09F0F6FDD7E7017DF2
S21400199482898B1C9A4299D380680DF030FE09F038
S2140019A459FECCE7057D8289EB1C9A428ED3ADB2F4
S2140019B4294680680DF023FEA3680235595D09F0B8
S2140019C49BFFBCE7057D8289AB1C9A42FFF47EAF81
S2140019D4ADB2294680680DF012FEA289E91C8A423F
S2140019E4064605F10203FFF471AFA068C75C8B1CC2
S2140019F49A4207D30DF003FE02463946304609F0F4
S214001A04D9FF9CE74FF6FF72F7E7017D82898B1CAE
S214001A149A42FFF45BAF80680DF0F1FD09F084FE96
S214001A248DE7832053E7812051E700204FE7C37BEF
S214001A3410B504460BB1832010BDC37C012B0BD01C
S214001A4403D3022B0BD08120F6E708F0CBFD48B970
S214001A54E37B002BEFD1F6E708F0D4FDF7E708F0B8
S214001A64E1FDF4E70020E7E738B5C37B0446002B26
S214001A74437D14BF8325C325012B0FD10368028A37
S214001A84598858790CF034FB40B123685B88032BE3
S214001A9415D12046BDE83840FFF749BE637D73B9CB
S214001AA42368228A598858790CF019FB38B12368C0
S214001AB45B88042B1BD004D87BB1032B12D028469A
S214001AC438BD062B1DD017D3B3F5A06FF7D1E37B33
S214001AD4002B14BF83258125F1E72046BDE8384056
S214001AE4FFF713BE2046BDE83840FFF73CBE20464D
S214001AF4BDE83840FFF759BE2046BDE83840FFF73A
S214001B04CFBE2046BDE83840FFF791BF012070479E
S214001B14012070470120704770470020704700205E
S214001B247047002070470020704700207047002050
S214001B3470470120704701207047B5207047002089
S214001B447047002070470020704700207047704799
S214001B540020704770470020704770470020704789
S214001B6484207047704700207047704770470020F5
S214001B7470477047002070470120704702460249AC
S214001B8401200EF0F5B900BF76320300704700203E
S214001B9470477047704770470020704700207047B2
S214001BA4034B1B681878012808BF0220704700BF43
S214001BB4C03B00200020704703460120024AC3E9C8
S214001BC4032000221A7070470100FEFF70470020B1
S214001BD470470020704700207047002070470020A0
S214001BE470477047B5207047002070470020704744
S214001BF40020704770477047B5207047704770479D
S214001C047047002070477047704700000023FF218C
S214001C14084A137082F8783082F8653082F8773094
S214001C2482F8793082F87A1082F87B30024A1360A0
S214001C34704700BFAC250020F4430020F8B50D46DD
S214001C448C680A6806462849202002F090FE6B68D5
S214001C547BB92649202002F08AFE20200AF018F9D3
S214001C642349202002F098FEBDE8F84020200AF020
S214001C740FB9002EF1D01F4D1F4E204F013C14F813
S214001C84013F23B91A49202002F086FEE5E7752BAA
S214001C9418D0762B18D0772B18D0732B18D0722B1D
S214001CA418D0712B18D0622B18D06E2B18D02A2B74
S214001CB418D01349134A212B18BF1146202002F0CE
S214001CC456FEDCE72946F9E73146F7E73946F5E7F5
S214001CD40D49F3E70D49F1E70D49EFE70D49EDE747
S214001CE40D49EBE70D49E9E7C16003003133030012
S214001CF4E2320300EF320300E3320300FA32030059
S214001D043B33030038330300063303001033030069
S214001D141B3303002633030030330300353303003C
S214001D24F0B50026204A92F87B30184452FA80F028
S214001D3490F865C090F8665030461C4BA5EB0C0531
S214001D441F78EDB2F4B2A54225D90CEB0603134472
S214001D545B7811B10CB92D2B17D0782B1FD0582BCC
S214001D6405D108B137240AE0013C012C14D9602BB4
S214001D7417D8402BF6D83A2B34BF302400241B1B2C
S214001D84DBB29F4203D900FB07300136DAE70523AE
S214001D94002082F87930F0BD10270020F5E70028EF
S214001DA4E2D05724EBE700BFAC250020981C0020A7
S214001DB4FFF72CBF034B93F8770093F87B30C01AD9
S214001DC4C0B27047AC2500200021FFF7A9BF000071
S214001DD410B50A4B93F87B20024453FA82F292F829
S214001DE4652013445C78A4F12D0359425941FFF74A
S214001DF497FF2D2C08BF404210BD00BFAC25002025
S214001E0430B50C4A92F87B300344C043DBB2C00FB3
S214001E1439B1D51895F8664095F86550641B241AB0
S214001E240C7042FA83F393F865301844024B184456
S214001E3430BD00BFAC250020AD250020F7B5154603
S214001E440E460DF107011C46FFF7DAFF9DF8073032
S214001E540746AB4288BF8DF807501CB19DF8074073
S214001E642C1BE4B222463046002100F079FB3019E0
S214001E749DF80720394600F017FB9DF8070003B0CD
S214001E84F0BD38B50C4601230822FFF7D7FF04F14E
S214001E940803621E043413F8011D12F8015FA342FE
S214001EA41D701170F7D138BD38B5054601460120BE
S214001EB4FFF7C4FED5E901436CB91C46084D2368F8
S214001EC463B12946202002F052FD21460020FFF788
S214001ED4B5FE0C34F3E71B786E2BEFD038BD00BF8D
S214001EE4F680030008B50449202002F040FDBDE852
S214001EF40840202009F0CCBFA332030038B5FFF712
S214001F04F1FF0024054D61190C34631953F80C3C99
S214001F1403B938BD0020FFF791FEF4E7D84003006C
S214001F242DE9F84F1F4B204D53F820201F49202041
S214001F3402F01DFD2B681BB9BDE8F84FFFF7DEBFA6
S214001F441B4FFFF7CFFF0026B946DFF86CA097F8C3
S214001F547B30F4B2013B9C4204DB2868BDE8F84FB2
S214001F64FFF7A2BF47FA86F393F8658000234C4434
S214001F74C84494F8662094F8651003F1010B521ACD
S214001F84DBB2D2B2934205D30A49202002F0EFFC1A
S214001F940136DCE743445A785146202002F0E7FC39
S214001FA45B46E6E79C1C0020F44300209E320300B8
S214001FB4AC250020F7800300308303002DE9F74F9B
S214001FC4884C94F87730002B00F0A180864B671C71
S214001FD41B7813F0010F1FD00025844E14E06319FC
S214001FE493F8662093F865302020D21A44FA85F3D5
S214001FF493F86510D2B2394409F045FF31462020E3
S21400200402F0B5FC0135EDB294F87730AB42E6D871
S2140020147749202002F0ABFC002694F87730DFF8EE
S214002024DCE10193734B4FF00008714645461EF8F9
S214002034012B91F801C007EB020AACEB020C5FFA25
S2140020448CFC1868002852D00138D14619E02AB909
S214002054002D4AD04FF001080C33F2E719F8011BA3
S214002064A1F1410BBBF1190F98BF2031A2F1410B2E
S21400207498BFC9B2BBF1190F9CBF2032D2B28A42B4
S214002084EAD1A9EB0A01614510F8012FDFD1002A35
S214002094DED11D46584B01361D6094F87B30F6B2EF
S2140020A4013384F87B30D5E90123002A35D01B7828
S2140020B46E2B31D03F2B23D04FF000094FF0070B87
S2140020C4C846042394F87710AA68B14212F8087038
S2140020D42BD8AFB1904498F801302A2B10D0212F7A
S2140020E41CBF032384F879300AE01D46B4E7B8F130
S2140020F4000F01D1002DCDD10223002584F87930BC
S21400210494F87900002869D168680CF067FF03B07A
S214002114BDE8F04FFFF77ABD1346019AB24282D863
S21400212403221D4684F87920EAE7732F09D8712F15
S2140021340BD2212F1FD0622F3CD0002F4BD103226D
S21400214446E0A7F17502022A45D8752F29D0762FC6
S2140021542AD0732F2BD0722F47F6FF7A18BF4FF072
S214002164FF3A012148460193FFF7DAFD5045019BEB
S21400217401D984F87930AA68424452782A2A94F815
S21400218479201CBF08F101085FFA88F8002AB7D145
S214002194212F1FBF013609F10109F6B25FFA89F94A
S2140021A490E74FF0FF0ADCE74FF6FF7AD9E74FF0E7
S2140021B47F0AD6E794F87B204A4454FA82F292F8CF
S2140021C4652022445278222AD5D07B2AD3D00522F1
S2140021D484F87920CFE784F879B0CCE7FFF7A0FE3F
S2140021E495E700BFAC25002028260020F7800300D2
S2140021F4E0320300D8400300F443002011260020F8
S2140022042DE9F34106460D464FF000085C4C5D4F41
S21400221466B90DF10701284609F030FE78B1262884
S21400222400F0A980012384F879304BE0002D00F0FB
S214002234A28016F8013B013D8DF80730EDB23A78DE
S2140022449DF807300D2A3B7001D10A2BE0D00D2BE8
S2140022540CD0A3F10A025142514122788846042A3E
S214002264D6D8DFE802F0051D263C31000121F4E74C
S21400227421B1FFF7A3FE4FF00108C9E7202B63D076
S214002284222B07D10223237094F87820642A5DD188
S2140022940623C8E77B2B01D10323F4E70123F2E7E7
S2140022A409B9202BF0D194F87730112B3FD10323B2
S2140022B4B9E7222BF7D00029E6D005234FF0010812
S2140022C484F8793004232370B8F1000FA0D094F872
S2140022D4790008B1FFF724FEFFF798FC98E77D2BFA
S2140022E494F87A0003D1FF28DDD005239BE7602B02
S2140022F413D8402B13D8392B8CBF002230229A1ABD
S214002304D2B20F2A10D8FF280BD0FF2302EB0012FC
S2140023148DF8072084F87A30B6E75722EFE737229D
S214002324EDE784F87A2073E7202BDED170E70133DB
S214002334DBB294F8782084F87730234483F8652059
S21400234400232370002994D1884661E72378012B63
S21400235409D19DF80730A3F1410119299CBF203308
S214002364DBB28DF807309DF80710A31801325970B8
S21400237484F878204CE7404602B0BDE8F08100BF00
S214002384AC2500202926002049BA89B24840C0F36B
S21400239403114140080380B24840C3B280EA4310A8
S2140023A4704719F01FBE70477047704770477047F4
S2140023B4704770477047704770477047704770475C
S2140023C4002070477047704700207047704770477A
S2140023D4002070477047704770470020704770476A
S2140023E40120704701207047704770477047704758
S2140023F470477047704700002DE9F0470024204DD1
S214002404DFF89C90DFF89CA05FFA84F840461DF045
S214002414A3F9FF2806460CD122461A49287802F06A
S214002424BBFA2878013409F033FD142CECD1BDE84E
S214002434F087154B47B213EA270338BF534659F8BB
S21400244424201249287802F0A7FA002FE9DA14B1FA
S214002454B8F1030F08D10E4B16F0010F0D4928787A
S21400246418BF194602F098FA0A2CDAD10A4B16F06D
S214002474010F0A49287818BF194602F08DFAD0E7EA
S2140024842D21002059340300E23203008134030076
S2140024941C34030032340300443403004E34030077
S2140024A4C8330300497F03008842F0B54FEA92031D
S2140024B41AD804460D469BB29E0087190437043486
S2140024C4BC4205F104053AD1C3EB8333314402EB35
S2140024D48303013E304411FA83F3994220D011F865
S2140024E4012B00F8012FF8E7541E204421440D4622
S2140024F404469BB2A0EB8306043E043CB442A5F11A
S21400250404050ED16FF003045C43C3EB833302EB84
S214002514830321449BB201342044CB1A994209D147
S214002524F0BD2F792771EF78E770AF78A7706F78D2
S2140025346770E2E711F8012900F8012DEEE715F8B7
S21400254404CC04F804CC15F803CC04F803CC15F832
S21400255402CC04F802CC15F801CC04F801CCAEE7A2
S2140025640244904200D1704700F8011BF9E710B509
S214002574013801390AB9104606E010F8014F11F87F
S214002584013F9C4201D0E01A10BD013A92B2F1E735
S21400259482B2074B4AB1000C1A8008BF4FF6CE220F
S2140025A4044B14BF18801A8070474BF6EF62F2E7AC
S2140025B46C1D00206E1D0020094B1888020448BFBD
S2140025C480F0620042001A80064A1388190444BF49
S2140025D483F4805383F00B035900118058407047EE
S2140025E46C1D00206E1D00200022034B1870034B48
S2140025F41970034B1A7070473326002032260020C9
S214002604342600202DE9F04F234E85B03378074654
S2140026148846002B3DD04FF6FB73204D98422C780D
S21400262403D952211E4800F0B1FE1E4B4FF0000B9A
S2140026349A4632785FFA8BF94A45187811D9484495
S21400264402A9C0B2019325F0C1FE082241460DEB53
S2140026540200FFF78CFF0BF1010B019B0028E8D169
S2140026644C462B78A34207D1631C3278DBB29A42DD
S2140026742B7004BF00232B709AF8003041461C448C
S214002684E4B2204625F0CAFF18B93946204625F09C
S2140026946BFE05B0BDE8F08F3226002034260020FD
S2140026A47635030033260020024B187800F07F00AE
S2140026B4704700BF35260020034B18780130C0B29F
S2140026C4187000F07F007047352600201FB5030AF7
S2140026D48DF80E300323009303AB8DF80D0000F045
S2140026E4BFF905B05DF804FB1FB58DF80F10042183
S2140026F4030A8DF80E30009103AB8DF80D0000F040
S214002704AFF905B05DF804FB2DE9F043994689B0AE
S214002714BDF840509DF84460074688460DF1090010
S21400272411460822BDF84C40FFF7BEFE8DF8125045
S214002734012E4FEA15258DF811908DF813508DF85B
S214002744146017D0032E1CD1082212990DF115001F
S214002754FFF7AAFE9DF850308DF81D30162300931F
S214002764BDF8542002AB4146384600F079F909B06A
S214002774BDE8F0838DF81540240A8DF816400F2323
S214002784EDE70120F3E71FB50C46194602238DF842
S2140027940D2000930A4603AB0146204600F060F97C
S2140027A404B010BD70B586B0044616460DF10D0093
S2140027B408221D46FFF778FE0A232A460093342192
S2140027C403AB20468DF8156000F04AF906B070BDDC
S2140027D430B5002485B0ADF80A20021D92B2012A55
S2140027E41D46ADF80840ADF80610ADF8044003D910
S2140027F44FF6FF72904207D1064A2B46127801A97B
S21400280423F00AFF05B030BD014601AA204623F096
S214002814C9FFF7E7701D00202DE9F74F9846FF2AF9
S21400282416BF474B00241B680E4618BF9C5C8146A7
S21400283418BF6408B8F1FF0F16BF414B00271B688A
S21400284415461CBF13F808707F08FFF735FF4FEADC
S21400285419238DF800008DF803600621360A6846B1
S2140028648DF804608DF801908DF802308DF80540DF
S2140028741DF02AFDFF28064604D11824204603B07E
S214002884BDE8F08F4FEA440B0BF1070A0AEB470149
S214002894C9B21DF0CDFC0028EFD10446A3451BD1D8
S2140028A40BF106013A4601F0FE0130465FFA8AF45F
S2140028B41DF085FD4FF0000A5FFA8AF5AF4223D873
S2140028C43346BDF8302006214846FFF781FF04460C
S2140028D430461DF09BFBD1E7214628461DF06AFDD5
S2140028E4A11D0246C9B230461DF069FD611CC9B27D
S2140028F428461DF05FFDE11D0246C9B2304602348B
S2140029041DF05DFDE4B2C9E76D00EDB22946404610
S2140029141DF050FD2146024630461DF050FD691C50
S214002924C9B240461DF046FD611C0246C9B2304697
S21400293402341DF044FD0AF1010AE4B2BCE700BF0C
S214002944081D00202DE9F04188B00F4602A906466E
S2140029540AF050FF00287CD0FFF7AEFE8DF810007A
S2140029641DF0CEF88DF811001DF0CAF8000A8DF897
S2140029741200082239490DF11300FFF795FDBDF842
S21400298408300F218DF81C301B0A8DF81D309DF879
S2140029940D3004A88DF81B608DF81E301DF094FCD5
S2140029A4FF28044657D04FF000089DF80D305FFA14
S2140029B488F2934208F101081DD801220DF10E0198
S2140029C420461DF0C3FC4FF000089DF80E305FFA59
S2140029D488F2934208F1010824D823463A46202177
S2140029E40020FFF7F5FE054620461DF00FFB28469F
S2140029F408B0BDE8F081002130460AF027FF0546FE
S214002A048DF807000DF10701012220461DF09EFCFB
S214002A142D0A01220DF1070120468DF807501DF0FE
S214002A2495FCC2E7012130460AF010FF05468DF8F2
S214002A3407000DF10701012220461DF087FC2D0A30
S214002A4401220DF1070120468DF807501DF07EFC8B
S214002A54BBE7A325CBE71825C9E700BF59510020DB
S214002A64F8B51C460E4617460546FFF725FE9DF8A4
S214002A741810207020461DF027FCFF2804460BD0B3
S214002A8403463A4628463146FFF7A2FE0546204648
S214002A941DF0BCFA2846F8BD1825FBE708B5FDF777
S214002AA42BFE0EF011FBBDE8084005F00DBD08B581
S214002AB4FFF753F80EF032FB05F076FEBDE808404B
S214002AC406F01CBC7047FDF7D1BEFDF777BF0020AB
S214002AD4704738B504460D46FFF795F82946204654
S214002AE4BDE8384009F00ABFFFF777B8FFF780B8AB
S214002AF44022032101200EF0BFBF0122032110460D
S214002B040EF0BABF0022032101200EF0B5BF022248
S214002B14032101200EF0B0BF00224FF4A06109206B
S214002B240EF0AABF01224FF4A06109200EF0A4BF44
S214002B340122002109200EF09FBF002307B5CDE92E
S214002B440033012369464FF0FF308DF8023010F051
S214002B54A5FE003018BF012003B05DF804FB012079
S214002B6470470120704701207047000010B5084CDC
S214002B7423681B6858790BF096FC23681B68587901
S214002B84FEF7F3FF00200EF05DFC012010BD00BF31
S214002B94BC4F00202DE9F84F80460D461446994652
S214002BA4164E06F1010A0DB9BDE8F88F102D4FF048
S214002BB40D02494650462F4628BF1027FFF774FCDF
S214002BC40123337000230D48F473B37325F0BEFD60
S214002BD4424601340A495FFA87FBE4B212F8013B25
S214002BE411F8010F434002F8013CA2EB0803DBB2E4
S214002BF45B45F3D3ED1BADB29046D4E73A260020EE
S214002C04392600202DE9F04F4FF00209364D85B0E5
S214002C1403930F9B174601900D220E460146681C2F
S214002C24BDF838800293FFF73FFC49234C46AA467A
S214002C342B7028464FEA1823AB7385F80F8025F0CF
S214002C4485FD2B7883EA17232B706B787B406B709B
S214002C544FF0000B21E0C4F1100CA7EB0B031FFA96
S214002C648CFC9BB2634528BF63463046A11B00EB31
S214002C74010C5FFA8CF2A0EB060C1FFA8CFC9C4548
S214002C841BD31C44E4B29B44102C1E441FFA8BFB3B
S214002C9403D1284625F05AFD0024BB45DBD314B1E6
S214002CA4504625F053FDB9F1010F4FF00004039E82
S214002CB447460BD04FF00109CAE710F801CB1AF8C3
S214002CC402E08CEA0E0C0AF802C0D0E7029804224E
S214002CD40549FFF7E9FB22460421019B029805B04B
S214002CE4BDE8F04FFFF756BF3A260020F7B5099F18
S214002CF4BDF820400646CDE900471D46FFF782FF93
S214002D042CB13346012221462846FFF743FF002014
S214002D1403B0F0BD2DE9F7431E46054688469146A6
S214002D24BDF828700D4C0346394630460122FFF79D
S214002D3431FF33464A4641462846CDE90074FFF73C
S214002D4461FF042221460B98FFF711FC002814BFEC
S214002D547E20002003B0BDE8F08300BF36260020A6
S214002D642DE9F3410C4615461E468046084F991831
S214002D74214438460422FFF797FBCDE90067631920
S214002D842A4621464046FFF7C5FF02B0BDE8F0815B
S214002D944A2600200020704700207047704770477E
S214002DA4F7B50024094E0A4F0A4D56F8243003B9E5
S214002DB43B6835F814200849009201202246013465
S214002DC40DF0D6F8292CF0D103B0F0BD741D002008
S214002DD41C1E00209C440020444B030008B5FFF74B
S214002DE4DFFFBDE8084000F0F1B8000007B500209A
S214002DF4FEF7EAFFC2B2282A0DD8084B53F8223051
S214002E040BB9074B1B680749012031F812100091D3
S214002E1405490DF0ADF803B05DF804FB741D002001
S214002E241C1E00209C440020444B0300FFF7B8BF40
S214002E347047000038B50020FEF7C6FF04460120A0
S214002E44FEF7C2FF0546054901200DF091F8A9B228
S214002E54E0B2BDE8384000F0D1B800BF4F4B0300E5
S214002E64F7B50024094E0A4F0A4D56F8243003B924
S214002E743B6835F8142008490092012022460134A4
S214002E840DF076F8292CF0D103B0F0BD741D0020A7
S214002E941C1E00204A440020444B030073B502ABBA
S214002EA403E906000446019D1CF046FB0646204640
S214002EB41CF050FB9DF800008EB1202C0FD82B7808
S214002EC4012B37D84FF6FF75394903EB43132344D8
S214002ED431F81320AA4202D0013221F813204FF60B
S214002EE4FF72344B344933F8146031F81450964268
S214002EF41CBF721C23F8142004F0FD02092A31D1E9
S214002F049A8A898A02448A42B4BF9A82998233F89A
S214002F141430AB4204D3AE4202D22046FEF726FE5D
S214002F240025264BEA5CA24228D00135112DF9D1A2
S214002F3402B070BD022BD2D14FF6FF714FF6FF756B
S214002F441B4B33F814208A421CBF013223F814208A
S214002F5404F1210233F81210A9421CBF013123F8F0
S214002F641210BCE71D2CD2D15A8F1118A942BDBF2E
S214002F7402F1FF3212185A875D87C8E718F0EDFC95
S214002F840F4B04461B78834203D8DD210D4800F01E
S214002F94FDF94FF6FF710C4A04EB04142C4432F886
S214002FA414308B42C4D0013322F81430C0E700BF7B
S214002FB4EE4400209C4400204A440020BB4E0300FC
S214002FC4511D0020374E03002844002052220021C1
S214002FD40148FFF7C5BA00BF9C4400205222FF21D7
S214002FE40148FFF7BDBA00BF4A44002008B5FFF702
S214002FF4EDFFBDE80840FFF7F1BF0000014B23F8E2
S214003004101070474A440020032310B50F4C4FF4A9
S2140030148062C4E904330E4B0E49E3610023A161C8
S21400302421660D49E01DC4E919120C49A3626362C6
S214003034E3622367E366636722622FF0ABFF084907
S21400304420462FF0A7FF2023A37110BD744500204F
S2140030544E2A0020CC4E03004E260020D54E0300F8
S214003064D94E03002DE9F84F1F4B16461A788146B1
S2140030748A4698460AB9FFF7C7FF182707FB098749
S2140030843D6FD7F86CB05D452BD9BC6E796E641B6A
S214003094B44228BF34462944504622462FF067FFE0
S2140030A4BB6E2544AB4208BF0025A244361BABEBDF
S2140030B4050B5E4528BF5E4656B1182303FB0983FD
S2140030C4596E3246294450462FF051FF3444354455
S2140030D424B1182303FB0988C8F870502046BDE8BD
S2140030E4F88F0024E3E700BF7445002010B50B46B4
S2140030F4EFF311844FF0200181F311881946FFF78E
S214003104B1FF84F3118810BD2DE9F84F144D9B468A
S2140031142B788146884692460BB9FFF775FFEFF386
S214003124118C4FF0200181F31188002018236F6959
S21400313403FB0054666E2EB101308742F8DC4FF074
S214003144FF3009E08742FADDC4E91898C4F868A09D
S2140031542667E666C4F874B08CF31188BDE8F88F69
S21400316474450020FFF750BF70B54FF060441A4B0B
S21400317400261A68194D42F001021A60DA680C201B
S21400318442F08072DA60164BC4F8B03F0223C4F8EB
S214003194006EC4F8806EC5F8F03003F057FB114B90
S2140031A400F5D52000F2FC40B0FBF3F00E4A0F4BBE
S2140031B401382861C4F8406E1A600D4BC4F8803E8E
S2140031C44FF48073C5F80433D4F8003E43F4807398
S2140031D4C4F8003E70BD00BFF0ED00E0000004E05F
S2140031E455CEACC5F8590D00FF030040001000E0B2
S2140031F40D00010010B501240E4B00201C6003F0E6
S214003204B1FE234604220321002003F0F3FE2046E9
S21400321410F054F8FFF7A8FF10F051F8FFF7A2FFDC
S2140032242346402204490548FFF76EFF044B186006
S214003234C00F10BD44D403404E2E0020E04E0300C1
S214003244201E0020024B1868003018BF012070476B
S214003254F0ED00E0D123054A037013784170090AA3
S2140032648170591CC3701170042070478E2E002084
S2140032742DE9F74F354E074633681C5C032C63D99B
S214003284DFF8CC8017F07AFF4FF6FF7A0025C146A8
S2140032940534E4B20190D8F800204AB1AC4207D90C
S2140032A417F06CFF019BC01A80B2B0F5FA7F05D9FF
S2140032B4601B18BF012003B0BDE8F08F002D3DD081
S2140032C4012D1DD14FF0020B3268D55D4FF06042E0
S2140032D4D2F8801ECB0711D51146D9F80C0040F061
S2140032E48070C9F80C00D1F8000E40F48070C1F864
S2140032F4000E086A0028F0D082F820505D46CAE71F
S214003304E21E05F1010B95425FFA8BFB02D15FFAD0
S2140033148AF5DBE7A21E954202D1CAF30725D5E754
S214003324621E95420ED0A91EC9B238461DF042F858
S21400333451460546FFF728F88246C7E75B254FF057
S214003344010BC3E75D25C1E70120B4E7081D002093
S214003354F0ED00E010B50B4B90B0402269461868BB
S214003364FFF7C4FE58B1C1B268461CF0ADFF044670
S214003374014612200FF04EFC20461CF047FE10B00B
S21400338410BD00BF201E002042DE704738B504463C
S2140033940D4600F0AFFD03F040FD294620460FF031
S2140033A405FC2B4622460549222008F077FD2946CF
S2140033B42046BDE83840FFF7E7BF00BFF04E0300E5
S2140033C46D4B2DE9F0415A686C4CA2655A6AE26569
S2140033D46B4AD2F800122166D2F8042262669A6A10
S2140033E4A266DA6AE2661A6B22675A6B6267A26B97
S2140033F4DB6B12F0040FA367D4E90F5318BF1D4606
S21400340417F0A0FE002285420346606522655DD360
S2140034145C4A95425AD8AA696264E969A164B4F818
S2140034245810C1F30801062954D157498A4251D38A
S21400343456498A424ED211884DF64262914249D18B
S21400344440F201706268C4F89420A268C4F8982018
S2140034544F4A5049934238BF13460A468B423CD3E0
S214003464D31AE3640023C4E91F33C4E92133C4E94F
S2140034742333484E444FDFF814C1AE4233D8D4E960
S2140034841FC7D4E92165D4E923124FF0000E013B8F
S214003494DBB2FF2B42D1BEF1000F05D0C4E91FC733
S2140034A4C4E92165C4E92312B4F85830C3F3080309
S2140034B4052B57D03CD8032B47D0042B58D040F6C6
S2140034C40722013B4B2B98BF104640E000221D46C6
S2140034D4C4E911224FF42060BAE71E68B6F1CD3F66
S2140034E4BED10433BAE756F8042DBA42C5D36245B2
S2140034F4C3D2D107C1D5002104EB010EDEF87CE06F
S2140035049645BAD004311829F6D10BB9052301E043
S214003514013BDBB204EB8301CA67AEE7E0464FF03B
S214003524010EBC4637462E460D4611464246AEE7C9
S2140035340C2B1AD03B2B0CD0062BC0D140F6042300
S214003544B0F5206F08BF184601E040F60120BDE83C
S214003554F081114B9B6913F0020F40F2025318BF1F
S2140035641846F4E740F60320F1E740F60520EEE7B8
S21400357440F60220EBE700BF00ED00E0000000206C
S21400358400E100E0A01A00204C030000D02F030046
S2140035949C000020C01A00200080014A042804D0A1
S2140035A403280CBF0120022070470020704700004B
S2140035B44FF480732DE9F04385B0ADF80C30002449
S2140035C401F098FC0127DFF84480DFF8449003AB51
S2140035D4E35C012218F8336008EBC3035D683046E9
S2140035E40023294603F006FD4946E8B201F090FCA4
S2140035F4CDE9007701232A462946304603F0B4FC79
S21400360414B105B0BDE8F0830124E0E7044F0300DD
S2140036149936000008B5FFF7C1FF022816BF024B13
S2140036240020185C08BD00BF8F2E002008B5FFF7E9
S214003634B5FF02281CBF014B195408BD8F2E00206D
S21400364408B5FFF7ABFF022805D0034A135CB3FAAC
S21400365483F35B09135408BD8F2E002008B5FFF7CB
S2140036649DFF02280FD03021084A12F8303002EBB2
S214003674C0025943064B50685B5823FA00F0C04317
S21400368400F0010008BD0020FCE700BF044F030063
S21400369414C0034070B504460026FFF7DFFF054656
S2140036A401E000261D462046FFF7D8FFA842034641
S2140036B4F7D10136052EF2D12046FFF7ABFFA8421C
S2140036C40BD029462046FFF7B1FF2046FFF7A2FF9E
S2140036D40146204609F014FF70BD2046FFF7B0FFF0
S2140036E42046FFF797FF0146204609F009FF2046CB
S2140036F4FFF7A6FFE9E7000010B504F07FF90446DB
S21400370404F074F90022012101FA02F3234014D0D4
S2140037141B4B33F812301B4A062B13D040F20721FA
S2140037248B420DD1184919480C68844208D14CF2D2
S2140037343C334B800B88138012E00132102AE3D10D
S214003744104AF8E74FF20F010F4B5888884214D1FD
S2140037541988B1F5406F10D211804CF23C325A8071
S214003764084B1A8840F201739A4201BF084B094A73
S214003774D2E90001C3E9000110BD4FF4C061EBE7D4
S214003784144F03009C2E00200000002007020FF0B8
S214003794942E002094000020014B1888000A7047DD
S2140037A49C2E0020014B1888704700BF9C2E0020DA
S2140037B42DE9F04F4D4C0546A36BD4F850B05A078C
S2140037C447BF0027B846D4F84CB0D4F85480D4F891
S2140037D440A05DBF464FD4F83CA0DFF83C91DFF82C
S2140037E43C9113F0080F434B434A18BF1A46B7EBF5
S2140037F408061FBF6421730801FB0B33B3FBF6F303
S21400380487B01CBF9BB205933C494B46CDE9017A71
S214003814CDF8008008BF059601F0BEF8B3B2CDE936
S21400382400931FFA8BF2059B3549284601F0B4F83D
S214003834A36B5B070AD49C3E5E4507D1626D314B91
S2140038449A4203D23049284601F0A6F8BA4501D870
S214003854C24504D24A462D49284601F09DF828461A
S21400386408F016FB236E0BB9636EBBB328492846D3
S21400387401F07DF800260127DFF8A480DFF8A49085
S214003884226E07FA06F3134207D058F82620137858
S2140038941BB14946284601F06AF80136202EEFD1BE
S2140038A400260127DFF87880DFF87890626E07FA42
S2140038B406F3134209D008EB8603D3F88020137866
S2140038C41BB14946284601F052F801361D2EEDD1AB
S2140038D4284607B0BDE8F04F01F058B828460D4911
S2140038E407B0BDE8F04F01F057B800BF0000002055
S2140038F4C01A00201B520300573103002252030053
S214003904505203009C00002089520300B552030065
S214003914D35203000253030016520300A56C03009F
S21400392418530300C06003002DE9F8430446FFF76C
S21400393439FF40F60123984239D010D840F202539A
S21400394498421DD040F20173984224D040F20153AD
S214003954984213D16549204601F01EF822E040F64D
S214003964032398426CD03DD340F60423984200F0DB
S2140039749C8040F60523984200F0B580BDE8F883A5
S2140039845B49204601F008F85A4B5B495A6C2046BE
S21400399401F002F806E0574A5849D2E925232046A2
S2140039A400F0FAFF2046BDE8F84308F071BA514D1E
S2140039B45349204600F0F0FF95F86C309F0703D576
S2140039C45049204600F0E8FF95F86F305E0603D5B0
S2140039D44D49204600F0E0FF95F96F30002BE1DA00
S2140039E44A49B8E7434D4A49204600F0D5FF95F8C2
S2140039F46830980704D06A6C3F49204600F0CCFF34
S214003A0495F96830002B04DA6A6F4249204600F0C4
S214003A14C3FF00260127DFF80881DFF81491AA6E99
S214003A2407FA06F3134207D058F8262013781BB17A
S214003A344946204600F0B0FF0136082EEFD1B1E724
S214003A442C4D3549204600F0A7FF2B496A6C2046CA
S214003A5400F0A2FF95F86930590703D52F49204690
S214003A6400F09AFF95F96930002B04DA6A6F294949
S214003A74204600F091FF0826294FDFF8B480AB6E8D
S214003A84F340DA0707D557F8262013781BB14146CA
S214003A94204600F081FF0136102EF0D195F86830EC
S214003AA4002B7FF47FAF1F4955E7124D1E49204671
S214003AB400F072FF6A6C1049204600F06DFF102675
S214003AC4174FDFF86C80AB6EF340DB0707D557F86B
S214003AD4262013781BB14146204600F05DFF0136D0
S214003AE41A2EF0D15EE711494BE700BFA54F03003D
S214003AF4E24F030000000020125003002B50030086
S214003B04455003005D50030097500300CA5003005D
S214003B14065103002B5103004F5103006651030066
S214003B24344F0300AC510300DC510300F55103008D
S214003B34475103002DE9F84F06460025154C164F4D
S214003B44DFF85C80DFF85CA023785FFA85FB0BB9AE
S214003B54BDE8F88F57F8043B22461049304600F07B
S214003B6406FF227804F1010982B9627882B10BF06B
S214003B74030103290CBF41465146304600F0F7FEC8
S214003B84304608F085F901354C46DDE74C46E8E753
S214003B944146F2E70C540300040000209C4F030047
S214003BA4E03203006971030000F00CB800F00AB8B4
S214003BB400F008B800F006B800F004B800F002B848
S214003BC400F000B872B61EF0080F09D01EF0040FFD
S214003BD40DD0DFF850E0AEE8FF1F6FF002000CE0F7
S214003BE4DFF840E0AEE8FF1F6FF00E0005E0DFF8F8
S214003BF434E0AEE8FF1F6FF006006946EFF3098273
S214003C048EE8070086460848084C854501D3A54536
S214003C1401D384F30888FFF7D3FB84F3088817F0EE
S214003C246DFA000004000020A0110020C01A002035
S214003C34FFF7C6BF704770477047704700F07E6353
S214003C44B3F17E6F70B505460E46144616D105F0E0
S214003C544BFF18B19A210D48FFF798FB22463146D0
S214003C64C5F30B0003F086FF044605F049FF5CB17C
S214003C749D21BDE870400548FFF788BB520817F041
S214003C84DBF908B18F21F4E770BD00BF305B030099
S214003C9437B57F2A14BF154600254BF2346291428D
S214003CA4044619D17F2241F2020168460823FFF731
S214003CB4EFFF082225496846FEF759FC30B9082369
S214003CC47F2241F2F0116846FFF7E2FF08226946B8
S214003CD42046FEF7E9FB09E041F2F01291421AD1C0
S214003CE41B4901388A6CC96C1D1F0BB903B030BD63
S214003CF4013B9D4200F8012F4FEA1222F5D1002223
S214003D0403349A42F2D00132042A04F8011F4FEA1F
S214003D141121F6D1EAE701F47042B2F5805F07D1CB
S214003D24C1F30B0404F17E649AB203FB0541D0E7A9
S214003D3401F46042B2F5005FD8D1C1F30B04054923
S214003D449AB2214403FB0511C3E700BFAA5B030034
S214003D540080E00F00E0070070B5054616461C46D6
S214003D64DBB14BF23463994210D1082C28BF0824E7
S214003D747F2241F202012346FFF78AFFA2B20749D7
S214003D842846FEF7F4FB40B941F2F01123463246CA
S214003D942846BDE87040FFF77BBF70BDAA5B0300F2
S214003DA42DE9F7430446E0070F46154603D5DD2103
S214003DB43448FFF7EBFAE90703D5DE213148FFF76D
S214003DC4E5FA04F47043B3F5805F3ED1C4F30B0404
S214003DD404F17E646B1E2C4A23449342264603D980
S214003DE4E3212848FFF7D2FADFF8989006EB050897
S214003DF446453DD1A2070ED04FF6FF7337F8022B87
S214003E0402A943EA0243A01E41F8043D0422FFF738
S214003E1415FF0234023DAB070ED0023D25F0010328
S214003E24FB5A02A96FEA03436FEA1343042241F8DC
S214003E34043D6019FFF702FF25B12A46394620469D
S214003E44FFF7FCFE03B0BDE8F08304F46043B3F56B
S214003E54005F05D10D4BC4F30B041C442646C3E790
S214003E64EA210848FFF792FA6FF00F060024BBE732
S214003E7416F8013BFF2BBBD0F4214846FFF786FA21
S214003E84B6E700BF305B0300FF1FE00F00E007004B
S214003E94FFF78ABE1FB5144A01AB10685168128931
S214003EA403C31A8001238DF804300D238DF80A30DD
S214003EB403230E4C082123208DF80B3002F004FE59
S214003EC401A9204604F08DF84FF40061022342F263
S214003ED41800074AC2F884112350516041F21C02AC
S214003EE4A35004B010BD00BFB25B03000080014ABB
S214003EF400E100E0014804F063B800BF0080014A16
S214003F04A52803D10021024804F04BB8704700BF2F
S214003F140080014A024B586800F00100704700BF59
S214003F240080014A024A536A002BFCD1704700BF46
S214003F340080014A00207047002070477047000048
S214003F4407B572B602F069FF894B8A495B6940225D
S214003F548B6000230B764B768B76F023CB760B7731
S214003F644B778B77CA77802281F8202081F821301E
S214003F74E023602081F822307F4B81F8232083F8E9
S214003F84002383F8012383F8022383F8032383F8AA
S214003F94042383F8052383F8062383F8072383F88A
S214003FA4082383F8092383F80A2383F80B2383F86A
S214003FB40C2383F80D2383F80E2383F80F2383F84A
S214003FC4102383F8112383F8122383F8132383F82A
S214003FD4142383F8152383F8162383F8172383F80A
S214003FE4182383F8192383F81A2383F81B2383F8EA
S214003FF41C2383F81D2383F81E2383F81F2383F8CA
S214004004202383F82103202083F8222383F8232304
S21400401483F8242383F8252383F8262383F8272389
S21400402483F8282383F8292383F82A2383F82B0389
S21400403483F82C0383F82D2383F82E2383F82F2369
S21400404483F8302383F8312383F8322383F8332329
S21400405483F8342383F8352383F8362383F8372309
S21400406483F8382383F8392383F83A2383F83B23E9
S21400407483F83C23CB6823F4E0631B041B0C43F057
S214004084BF6343F40133CB604B6943F010034B61C9
S2140040944FF4E0234B6205F0DDF8FFF72DFBEFF35A
S2140040A408834FF0CD31354A043B93425DD2344AFF
S2140040B4002192B23348FEF753FA62B6684603F01C
S2140040C481FD314B9B6DDB0318D4304A136823F40F
S2140040D4FF0323F4FE4343F4BC1343F4A0631360CA
S2140040E452F8043C23F4704343F4404342F8043C3F
S2140040F452F8043C43F4E06342F8043C9DF8013073
S214004104012B0FD19DF8003063B94FF000531B68A4
S2140041141F4B1B681F4B1B681F4B1B681F4B1B68E2
S2140041241F4B1B681F4AD2F8803043F00303C2F8C3
S214004134803002224FF040231A6704F0D1FF01F0CA
S214004144E3FA002300938DF80430012368468DF8C3
S214004154033002F0FEFE00F027F917F021F81248AB
S2140041640FF0B6F803B05DF804FB1960043B9CE757
S2140041745400000000ED00E000E100E060110020C3
S2140041848C100000A000002000C0004034C0004096
S214004194004000200080002000C000200000012015
S2140041A40040012000800040FC86030040F20160CD
S2140041B416F0A4BFFEF7F2BD08B500210B20FEF7EB
S2140041C4EBFDBDE80840FEF7EABD032000F078BA30
S2140041D408B5FFF7E1FA044B0B289ABF00B203EBCD
S2140041E48000184608BD00BF025D030008B5FFF74F
S2140041F4D9FA044BC0F30F2253F82230C0B203EBB3
S214004204800008BDCC5C030010B5FFF7C5FA044671
S214004214FFF7C8FAC0B228B9012C24D164F07F0491
S214004224E4B216E0072CF9D801A353F824F000BF33
S2140042345742000021420000554200005B42000045
S2140042445B4200005F4200006342000067420000D9
S2140042540924204610BD0224FBE70324F9E70B24B7
S214004264F7E70624F5E70446F3E700BF07282DE939
S214004274F84F04460F462DD0082808BF02242146CE
S2140042840120FDF7C1FCFFF745FE651ED5F10008C9
S21400429448EB050800B3012C1ED1A520FFF730FE1D
S2140042A42646EFF31089012383F31088EFF3118A6F
S2140042B44FF0000B8BF31188354D404608F0B0F8EC
S2140042C4631EC5F800B0042B59D8DFE803F00E4D82
S2140042D44D5155000324D2E7FFF71CFE18B1FFF733
S2140042E421FE0026DDE70646DBE72A4A136923F0AB
S2140042F40403136130BF284AD2F82434D2F82024A9
S21400430413409BB2254A2B60D2F80011480102D50F
S2140043141168490106D4D2F80011880105D512683F
S214004324910102D543F480332B601C4BD3F8002153
S214004334520506D51B685B0542BF2B6843F4003361
S2140043442B601EB10121164803F02BFE404608F0F0
S2140043549DF8CFB18AF3118889F310882146BDE809
S214004364F84F0020FDF750BC012002F0C5FDC2E75F
S214004374012002F0D5FDBEE702F0D4FDBBE788219C
S2140043840848FFF703F8B6E787F31088E6E700BFA8
S214004394A82E002000ED00E000C0034000E100E08D
S2140043A40080014A325D030042F22041044AD2F8FA
S2140043B420341B0C1B045350024A1360704700BF82
S2140043C400C00340A42E00200021FFF74FBFFFF7D4
S2140043D4FBBF00002DE9F04F89B00EF06DFF0746D5
S2140043E4002840F0DD806F4E6F4D3168286816F067
S2140043F46FF80446002827D033683C46D3E900010A
S2140044049A6912689047336804A89B699B68984722
S214004414336802209B69DB689847326805985368BE
S214004424E7B2B3FBF0F3BB42916904F1010442D84E
S214004434CB680020984733689B695B689847316867
S214004444286816F045F804460026DFF88891002C04
S21400445453D1564B4FEA8608F35C002B31D1A24663
S214004464534BF35C0193534B03EB080B019B5FFA2E
S2140044748AF7BB42286853D84F4BF35C002B3CD0DA
S2140044844C4B019F9844FBB27E2B286835D8D8F84D
S214004494003003AA07EB030A514602AB16F052FAA1
S2140044A448452AD05146286816F092FA0137044641
S2140044B40028E8D021E012680B6907FB0020984723
S2140044C4ABE73C4B03AA53F82670286802AB394680
S2140044D416F038FA484507D078B9039B012B0CD060
S2140044E43946286816F074FA344B394653F80830BF
S2140044F428681A6816F050F904460136272EA6D105
S214004504B4FA84F32E4A5B0913702E4B9C4241D0B6
S2140045142DD8002C32D0013B9C423FD0C5242DE040
S214004524DBF8003003AA1F44394602AB16F00AFA39
S21400453448450AD010B10AF1010A97E7039B8BB9E4
S214004544214B029AF35C9A42F5D01F4B1B4A9B5DA3
S21400455452F808203946286816F090F80028EAD061
S214004564044689E73946286816F032FAEDE7174B11
S2140045749C4211D004339C42D0D1C1242B681B7CAE
S21400458423B14FF489711248FEF700FF204609B0A4
S214004594BDE8F08FC324F1E7C424EFE7C224EDE7B7
S2140045A4C624F3E7781E0020741E00201C3903007E
S2140045B4593803006C39030043390300803803007C
S2140045C4AC2E002002E000F0083A030004E000F0FD
S2140045D4AE5D03000BE000F0262970B506460C46D7
S2140045E415461AD8144A127822B3144A1068144A84
S2140045F452F82110134A125D3AB1324616F01AF9EF
S214004604C0B1BDE87040FDF7CEBE7F2D08BF0025C3
S2140046143246294416F07CF8F2E7FF2903D9BDE8B0
S2140046247040FFF799BB40F24511BDE8704006485C
S214004634FEF7ACBE70BD00BFAC2E0020741E00207A
S2140046446C3903001C390300AE5D03002628F8B558
S21400465404460D46164619D81449097829B3144950
S214004664144F0868144951F824103C5D3CB1126894
S21400467416F092F8C8B1BDE8F840FDF794BE7F2D59
S21400468408BF0025294415F0F9FFF3E7FF2805D9EC
S2140046941A463146BDE8F840FFF782BB4FF4BC71BA
S2140046A4BDE8F8400548FEF771BEF8BDAC2E002004
S2140046B4741E00201C3903006C390300AE5D030031
S2140046C408B5084B1B7863B1074B002253F820103B
S2140046D4064B186816F0EEF818B1BDE80840FDF76A
S2140046E462BE08BDAC2E00206C390300741E002088
S2140046F470B5164685180AB9304470BD01F00F032C
S2140047040A2B34BF30243724013A2344090905F818
S214004714013DD2B2EFE70000F0B5F9B100281CDA8B
S2140047242D23B0F1004F137000D04042012115E054
S214004734801B8642ECB205F10105F9D904B927B10C
S21400474401274D1C30345454E9B20133092B09D1E6
S214004754303050540131C8B2F0BD002100231F464A
S214004764DFF808C05CF823600025E2E7245E030057
S2140047742DE9F04F4FF0000B95B002AC81468A4607
S21400478417461D465E46A0463B7863B902ABE41A5C
S214004794E4B2224619465046C847002840F09380A3
S2140047A43444E0B290E0252B13D0BBF1000F14D1B3
S2140047B42370013412AB9C426DD3A4EB0804E4B21C
S2140047C4224641465046C84700287CD12644F6B2C5
S2140047D460E0BBF1000F00D101373B78632B00F09B
S2140047E492801BD8392B09D8302B80F09E80002B62
S2140047F4CCD0252B51D04FF0000BDBE7582B00F024
S2140048048B80622BF7D14FF0000B2B6801936B68FB
S2140048140093009B9B4543D10835ECE7702B1ED0D4
S21400482417D8642B01D06C2BE5D16C2B05F1040B47
S21400483428686CD17B78752B14BF0121002101D028
S214004844642B00D101372246FFF766FF04445D4619
S214004854D1E7752BE9D0782B5ED0732BCBD1A4EBA4
S2140048640804E4B2224602A9504605F1040B2D685A
S214004874C84740BB2644F6B2C4B22B5D0130002BB9
S214004884FAD1224629465046C847E0B95D468346D3
S2140048942644F6B24446013776E723700134AAE785
S2140048A4019B204613F80B100222FFF721FF12ABE0
S2140048B4984204460ED3A0EB0804E4B222464146CE
S2140048C45046C84718B1002015B0BDE8F08F2644FE
S2140048D44446F6B2009B013B5B4582BF202323700F
S2140048E4013412AB9C420BD3A4EB0804E4B2224678
S2140048F441465046C8470028E5D126444446F6B209
S2140049040BF1010B85E72B6804352370C6E7752B7E
S2140049140CBF0021012196E7204602222978FFF7E2
S214004924E7FE05F1040B044691E77A7802F0DF020D
S214004934582A19D1322B07F1010B09D1042220463B
S21400494429882F1DFFF7D4FE3D4604465F4652E7EE
S214004954342B09D12F1D2D680422290C2046FFF77D
S214004964C7FE0422A9B2EDE74FF0010B22E70EB40E
S21400497403B503AA52F8041B019207F03DFEC0B229
S21400498402B05DF804EB03B0704700000149FFF77E
S214004994EEBF00BFE03203000EB433B505AA52F8EA
S2140049A4041B0546019207F027FE04462846FFF737
S2140049B4EDFFE0B202B0BDE8304003B0704708B582
S2140049C407F01AFEC0B208BD2DE9F04F9B46584BBF
S2140049D485B01B78064689461546109F9DF844A068
S2140049E4DDF85080002B00F09280072A00F29180B8
S2140049F40E9B002B00F08D800F9B002B00F089800F
S214004A04129BB3F5006F00F38480012801D1002FB8
S214004A147FD0484B03EB05131B7B002B7BD0464C07
S214004A241022002168462EF0ADFA04EB451410223D
S214004A34B9F1000F5CD1494620462EF0A3FAA378BC
S214004A4443F01003A370E37843F03003E370BAF145
S214004A54000F03D1DBB243F00303E37036496A0167
S214004A64129B885A013B63F30E100E9B01EB020C5B
S214004A748852CCF808300F9B9DF84C10CCF80430C4
S214004A849CF80330012E61F38303CDF800B08CF854
S214004A94033042D113230CF1100ECCF80C309CE8F2
S214004AA40F008EE80F006FF00301DCF81C20B9F14C
S214004AB4010F61F39F02CCF81C20CCF8147004D1CB
S214004AC40F9BCCF80470CCF81830002719492A013B
S214004AD48B1841F80280159A28465A609F605E73C8
S214004AE42246694602F0E8FE384605B0BDE8F08F77
S214004AF4002120462EF046FA1023A3700323E37009
S214004B04BAF1000FAAD1DBB243F03003A5E70B4895
S214004B14EBE70B48E9E70B48E7E7B8F1000FD4D119
S214004B249CF8023068F304138CF80230CDE700BF1B
S214004B3430300020B02E0020302F0020028000F0FD
S214004B44018000F0078000F038B5104B05461B784E
S214004B54BBB1C0B102F069F900230D4901EB0312A1
S214004B64147B3CB92B6001231460137302F063F9C1
S214004B74204638BD0133082BF0D102F05CF9054815
S214004B84F7E70548F5E70548F3E700BF30300020AF
S214004B94B02E0020048000F0028000F0018000F0B7
S214004BA438B502F042F9002305460A4AD1180C7BB0
S214004BB45CB91033802BF9D102F030FE064B284640
S214004BC41C7002F038F9204638BD284602F033F946
S214004BD40248F9E7B02E002030300020058000F0AF
S214004BE40D4B10B51B78044693B1072812D802F073
S214004BF41CF90A4B03EB04131A7B2AB100241C731A
S214004C0402F019F9204610BD02F015F90448FAE737
S214004C140448F8E70448F6E730300020B02E0020B9
S214004C24068000F0028000F0018000F0164B13B5F9
S214004C341868002301908DF8043002F0F6F8134B40
S214004C441C7824B102F0F7F8114802B010BD012216
S214004C541A7002F0F0F80F4B1C731C7783F82C4084
S214004C6483F83C4083F84C4083F85C4083F86C40FF
S214004C7483F87C4004230DEB03008DF8073002F024
S214004C84F1FD2046E1E700BF485E03003030002017
S214004C94038000F0B02E002010B588B00E9C009261
S214004CA407940D9C024606949DF8304005940B9C90
S214004CB404949DF8284003940024CDE9013420464A
S214004CC40B462146FFF780FE08B010BD10B588B02D
S214004CD40E9C009207940D9C024606949DF8304064
S214004CE405940B9C04949DF8284003940024CDE975
S214004CF4013420460B460121FFF766FE08B010BDBE
S214004D0408B50A4B1B785BB107280BD8084B03EB96
S214004D1400131B7B43B1002102F094FD002008BD64
S214004D240448FCE70448FAE70448F8E73030002073
S214004D34B02E0020028000F0018000F0078000F012
S214004D4408B50A4B1B785BB107280BD8084B03EB56
S214004D5400131B7B43B1012102F074FD002008BD43
S214004D640448FCE70448FAE70448F8E73030002033
S214004D74B02E0020028000F0018000F0078000F0D2
S214004D8408B50A4B1B7853B107280AD8084B03EB1F
S214004D9400131B7B3BB102F0DFFD002008BD054875
S214004DA4FCE70548FAE70548F8E700BF303000207E
S214004DB4B02E0020028000F0018000F0078000F092
S214004DC40D4B1B7893B1072812D889B10B4B03EB14
S214004DD400131B7B73B10A4BDA6A012303FA00F053
S214004DE410401ABF00200B700870704705487047C3
S214004DF4054870470548704730300020B02E002024
S214004E0400000440028000F0018000F0078000F0FB
S214004E140B4B10B51B780C4663B107280CD859B158
S214004E24084B03EB00131B7B43B102F0A7FD206085
S214004E34002010BD0448FCE70448FAE70448F8E7F5
S214004E4430300020B02E0020028000F0018000F0F8
S214004E54078000F02DE9F843174B1F6D5B6D1F406C
S214004E6400D5FEE701260025144CDFF85480DFF851
S214004E745490374217D02368C8F800609BB1A168E5
S214004E8462680131A16028469847637B012B0AD1EA
S214004E9448B909EB4513197B1A7F60F3410160F3A7
S214004EA4410219731A770135082D4FEA460604F1B4
S214004EB41004DED1BDE8F88300000440B02E0020C4
S214004EC450200440302F002070B504460125084EBB
S214004ED404B970BD94FAA4F0B0FA80F005FA00F3B1
S214004EE424EA030456F82030002BF1D09847EFE765
S214004EF4343000204FF00072044BC3F880211A604F
S214004F044FF08062C3F880211A60704700E100E029
S214004F1438B504460D4601F088FF034B43F8245089
S214004F24BDE8384001F087BF34300020084BD3F882
S214004F342404D3F82024104042F2204220F42A50BD
S214004F4420F02A004004400C9850FFF7BDBF00BF75
S214004F5400C00340084BD3F82404D3F820241040A0
S214004F6442F2204220F4AA4020F055000004000C2F
S214004F749850FFF7A9BF00BF00C00340104A30B5E1
S214004F84136841611546ABB91060836011E0091BD4
S214004F949C6841611A467CB123465C698C42F6D90A
S214004FA4002CF4D052B19060836013B15A69511A40
S214004FB4596130BD0022F0E72346F4E72860F3E7A2
S214004FC48830002010B500F0AFFA094B094A19687A
S214004FD431B11368C41A4B69A34203D31B1B4B613C
S214004FE4106003E0C01A002310604B6110BD00BFC0
S214004FF48830002078300020074B10B51B6802204C
S2140050045C69064B1B681C4400F0C2FA2046BDE8E7
S214005014104000F091BA00BF88300020783000209D
S21400502470B59DF81450164605710025049A8560DF
S214005034BDF818500446C5800260C0E903360D4624
S21400504429B961610BB11146984796B1354601F00E
S214005054ECFE0646FFF7B6FF29462046FFF78EFF0E
S214005064054B1B68A34201D1FFF7C6FF304601F08B
S214005074E2FE002070BD00BF8830002000210C4AEC
S21400508413687BB183420AD1836879B18B608368E5
S2140050941BB15A6941690A445A610020704719468F
S2140050A49B68EEE70028EFD0022070471360EEE717
S2140050B48830002070B501F0B8FE114D06462C78F5
S2140050C4CCB9104B1C60104B1C60104B1C8000F0BD
S2140050D4F1F9012000F05CFA00F0A8FA0C4B024645
S2140050E4186040F2E73123460A482DF069FD0A4B62
S2140050F4186001232B70304601F09DFE002070BD21
S2140051047430002088300020783000208030002062
S2140051148430002018FCFFFF7C3000202DE9F0418D
S2140051240546F8B101F081FE0F4F0646FFF74AFF29
S2140051342846D7F80080FFF7A1FF044628B130467A
S21400514401F079FE2046BDE8F081A8453B6803D10E
S21400515423B1FFF751FFF2E7002BF0D1022000F055
S21400516423FAECE72224EDE788300020F0B50D465C
S21400517485B016461F46044680B1FFF7CFFFBDF83C
S2140051842C30002202939DF828302946CDE900737E
S21400519420463346FFF744FF05B0F0BD2220FBE768
S2140051A438B50C46054698B191B100230B7001F052
S2140051B43CFE0121074B1B680BB122781AB101F0A3
S2140051C43AFE002038BD9D420CBF21709B68F3E771
S2140051D42220F7E788300020F0B51F46002387B06A
S2140051E40D4616468DF817300446A0B10DF117018A
S2140051F4FFF7D6FF9DF817207AB9BDF83430294654
S21400520402939DF830302046CDE900733346FFF70D
S21400521407FF07B0F0BD2220FBE70320F9E70000F4
S214005224F8B50C460646C8B1C1B101F0FEFD054608
S214005234FFF7C8FE73692360134B1B68B3420FD095
S21400524423B9284601F0F7FD03201CE059692268BB
S2140052549B680A442260F1E700230FE0222012E054
S214005264276800F061F9094E3368C01A8742F3D9FB
S21400527400F05AF93368C01A23681B1A28462360BC
S21400528401F0D9FD0020F8BD8830002078300020D9
S21400529470B501F0CAFD064600F046F9094B05460E
S2140052A41C880120A4B200F097F918B100F03CF96C
S2140052B405460134304601F0BEFD0022214642EA8E
S2140052C4050070BD803000200A4B10B51B680C46E4
S2140052D483420CD3084B4FF47A7219680023A0FB60
S2140052E401012DF06DFC01302060002010BD21204E
S2140052F4FCE700BF7C30002084300020104B10B543
S2140053041A684FF47A73A0FB0301A2B1531E13422A
S21400531411D1B2FA82F2C2F11F02C2F12004A2F144
S214005324200301FA04F420FA02F2224321FA03F3DA
S21400533442EA030010BD00232DF042FCFAE700BF4A
S21400534484300020F8B516461BA3D3E900238B420D
S21400535408BF82422AD3174B1A684FF47A73A0FB0D
S214005364034503FB0155C2B1531E13EA020014D1D0
S214005374B2FA82F2C2F11F02C2F12007A2F12001A2
S21400538424FA02F305FA07F73B4325FA01F10B4327
S21400539425FA02F2C6E90032F8BD00232046294663
S2140053A42DF00EFCC6E900010020F5E72120F3E706
S2140053B4AFF3008084300020EFA7C64B3789410046
S2140053C4C2072DE9F84F04460BD5374A1388013334
S2140053D49BB21380FFF7F6FD344B1B680BB1FFF747
S2140053E40BFEA3075DD500F09FF8314E07463568DF
S2140053F44FF0000A451B01F018FD8046DFF8AC901C
S214005404D9F80040002C48D06369AB4209D95D1B2B
S21400541465613760FFF7F0FD4046BDE8F84F01F0E0
S2140054240ABD23462A4637605969914209D8187935
S21400543494F804C0521A844588BF1C469B68002B07
S214005444F2D1404601F0F7FCD4F81480C4F814A056
S21400545401F0EBFC83462046FFF710FE584601F0A9
S214005464EAFC23694BB101F0E0FC8346216920463F
S214005474FFF784FD584601F0DEFCE36813B12168AB
S2140054842046984700F050F84744ED1B0446054470
S21400549401F0CBFC27468046B2E7022000F084F8F1
S2140054A4BAE7BDE8F88F00BF8030002088300020BF
S2140054B4783000201FB50024184B18689A8802908C
S2140054C453F8060FADF80C201B79009002A88DF84F
S2140054D404308DF808408DF80C4002F0D9FA69467D
S2140054E401208DF8004002F097FA4FF090431F21F8
S2140054F49A6922F01F029A61094A11609A6A12F0A8
S2140055040802FBD11A62012002F0A0FA4FF480626E
S214005514044BC3F880211A6004B010BD4C5E03002F
S2140055241420004800E100E04FF090439A6A120706
S214005534FCD4186A704700004FF09042936A19072B
S214005544FCD4136A116C5269120704D4CA1A022ACC
S21400555401D899420ED1C21A012A98BF981CB0F1FC
S214005564FF3F28BF01304FF0904318649A6942F019
S21400557408029A61054A13783BB14FF09041CB6B11
S21400558443F00203CB63002313707047281E0020E9
S21400559482074FF0904200F00103916948BF43F040
S2140055A408030B4393617047830700F001020AD592
S2140055B40121084B42F0080219704FF09041CB6B62
S2140055C423F00303CB634FF090418B6923EA020375
S2140055D48B617047281E00204FF0904301285B69BA
S2140055E404D0022805D1C3F3C000704703F00100BD
S2140055F4704700207047000010B501F016FC4FF00D
S214005604904304465B691A07074A03F0010003F057
S2140056140D0348BF40F002001360FFF7D1FE20469A
S214005624BDE8104001F007BC142000481B2001F020
S2140056340DB90000002211462D48F0B503682D4D23
S21400564454592CB11E68AC18002E3DD123460121B6
S2140056540832282AF4D101B10360002214462649F0
S214005664264E0B6895592DB11F68B518002F32D1F8
S2140056742B4601240832282AF4D104B10B600068B2
S2140056840368002B2FD04FF04022936F007923F04D
S214005694FF7323F4803343EA00439367184B4FF0B9
S2140056A4004209681A600B68FBB14FF04022936F02
S2140056B4097923F4FF7323F001030B439367104B1C
S2140056C44FF080421A60F0BD1E792779B74284BF36
S2140056D423460121BCE71F7995F804C0BC453CBFAE
S2140056E42B460124C6E7074BD9E7064BE8E700BF7D
S2140056F490300020A030002094300020C8300020D5
S214005704685000406860004010B5012228240F4B02
S21400571400211A700E4822462DF034FC2246002141
S2140057240C482DF02FFC0C4B0C4A13600C4A1360EB
S2140057344FF040430B4A1360536020220A4BC3F8D1
S21400574480211A60FFF776FF002010BD8C30002001
S214005754A0300020C8300020983000209030002070
S214005764943000206460004000E100E04FF04022E6
S214005774D2F88800D2F88830C0F38800C3F38803D0
S2140057849842F5D16FF48873184440B2704700000D
S2140057944FF04022936E526E10B5134013F08042C1
S2140057A411D0114B1B681C682CB10021196059607C
S2140057B4FFF7DCFFA0474FF080420C4B1A60BDE8B1
S2140057C41040FFF737BF002BF9DA094B1B681C683B
S2140057D42CB11A605A60FFF7C9FF0121A047034B9A
S2140057E44FF00042EAE700BF9430002064600040B7
S2140057F490300020FFF7CCBF012203685A619A69F3
S214005804D207FCD541F2AC52042103795B0103F1C3
S214005814804303F5703399507047000038B141B1A6
S214005824013AB2F5006F044838BF002070470348B9
S21400583470470148704700BF037000F0027000F024
S21400584438B504460D4601F0F0FAA28892B222B9A1
S2140058542A6001F0F0FA064838BD1422638802FB79
S214005864034308332B6001F0E6FA0020F4E700BF98
S2140058740B7000F038B504460D4601F0D6FAA3883E
S2140058849BB223B92B6001F0D6FA0C4838BD14221B
S2140058946388E18802FB034308332B6063885A1C41
S2140058A492FBF1F301FB13239BB26380A388013BB5
S2140058B49BB2A38001F0BFFA0020E7E70B7000F06C
S2140058C490F83130022B0BD13022437F90F8210020
S2140058D45A43044B9B5823FA00F000F0010070472B
S2140058E40020704714C00340002313B51C4A52F826
S2140058F4234094F8211081420ED00133042BF6D1B4
S21400590402B010BD0028FBD19DF80730002BF7D05D
S214005914A068FFF7F5F9F3E794F83130022BEFD1DE
S2140059242046FFF7CDFF637E2076022BE8D194F85D
S2140059342E3003F0FF02002BE2D102A901F8012D5C
S214005944A068FFF73DFA237E1BB194F82F30002B96
S214005954D8D00023A06884F82F30FFF7F1F9CFE7FA
S214005964F0300020012230B590F8324087B080F83D
S2140059742C207CB9094D0368CDE9024504904C6897
S2140059842433CDE900240A684169C068FFF79EF90C
S21400599407B030BD002380F82C30F9E755620000CC
S2140059A4012330B590F8324087B080F82D307CB9AA
S2140059B4094D0268CDE9024504904C683C32CDE9B5
